:020000040800F2
:1000000070060020290200087F0600087706000815
:100010007B060008E1050008D90700080000000081
:10002000000000000000000000000000D5060008ED
:10003000E5050008000000008106000851070008DF
:10004000430200084302000843020008430200087C
:10005000430200084302000843020008430200086C
:10006000430200084302000843020008430200085C
:10007000430200084302000843020008430200084C
:10008000430200084302000843020008430200083C
:10009000430200084302000843020008430200082C
:1000A000430200084302000843020008430200081C
:1000B000430200084302000843020008430200080C
:1000C00043020008430200084302000843020008FC
:1000D00043020008430200084302000843020008EC
:1000E00043020008430200084302000843020008DC
:1000F00043020008430200084302000843020008CC
:1001000000000000000000000000000043020008A2
:1001100043020008430200084302000843020008AB
:10012000430200084302000843020008430200089B
:100130004302000843020008000000000000000025
:1001400043020008430200084302000800000000C8
:10015000000000000000000000000000000000009F
:1001600000000000000000004302000843020008F5
:100170004302000800000000000000000000000032
:10018000000000004302000800F002F800F03CF814
:100190000AA090E8000C82448344AAF10107DA45E2
:1001A00001D100F031F8AFF2090EBAE80F0013F0F8
:1001B000010F18BFFB1A43F001031847D4070000D2
:1001C000F4070000103A24BF78C878C1FAD8520763
:1001D00024BF30C830C144BF04680C6070470000C1
:1001E0000023002400250026103A28BF78C1FBD840
:1001F000520728BF30C148BF0B6070471FB500F0E1
:10020000C1FB1FBD10B510BD00F031F81146FFF75E
:10021000F5FF00F0E3FA00F04FF803B4FFF7F2FF48
:1002200003BC00F057F80000094880470948004720
:10023000FEE7FEE7FEE7FEE7FEE7FEE7FEE7FEE796
:10024000FEE7FEE704480549054A064B70470000F3
:100250005507000889010008700000207006002082
:10026000700200207002002070477047704775468A
:1002700000F02CF8AE4605006946534620F0070012
:10028000854618B020B5FFF7DDFFBDE820404FF0F0
:1002900000064FF000074FF000084FF0000B21F070
:1002A0000701AC46ACE8C009ACE8C009ACE8C0093D
:1002B000ACE8C0098D46704710B50446AFF3008026
:1002C0002046BDE81040FFF7A8BF00000048704777
:1002D0001000002001491820ABBEFEE726000200F6
:1002E000704721B1826842F00102826003E08268B7
:1002F00042F002028260704710B50022B0F1A04FB8
:1003000002D0124B984204D1114B1A68114B1A407B
:1003100003E0114B1A680F4B1A40D1E90034234314
:100320008C682343CC6843EA04330C7C43EA0423FF
:100330001A43B0F1A04F02D0044B984202D1044BB3
:100340001A6001E0044B1A6010BD0000000100506B
:1003500008030050E010FCFF080700500146002091
:100360008A6802F000420AB1012000E000207047D4
:100370000146D1F8B40070470146086C80B270475E
:100380000246002013680B400BB1012000E0002062
:100390007047000010B502460020D0680C4B184092
:1003A000D1E9003423438C682343CC6823430C6990
:1003B00023434C6923438C6923431843D060106B5B
:1003C00020F00F000B7F5B1E1843106310BD000070
:1003D00007C0FFFDF0B50C461D4600BF00BF052A53
:1003E0000FDA016B02EB420677001F2606FA07F3CD
:1003F000994302EB4206760004FA06F319430163BF
:100400003CE00A2A11DA416B561F06EB46067700DC
:100410001F2606FA07F39943561F06EB4606760099
:1004200004FA06F31943416328E00F2A13DA816BBB
:10043000A2F10A0606EB460677001F2606FA07F326
:100440009943A2F10A0606EB4606760004FA06F383
:100450001943816312E0C16BA2F10F0606EB460659
:1004600077001F2606FA07F39943A2F10F0606EB61
:100470004606760004FA06F31943C163092C14DD1D
:100480008169A4F10A0606EB4607072606FA07F378
:1004900086699E4386618669A4F10A0707EB4707D0
:1004A00005FA07F73E43866110E04169661E06EBD8
:1004B0004607382606FA07F346699E4346614669B1
:1004C00004EB440705FA07F73E434661F0BD826836
:1004D00022F08042826082680A43826070478168AD
:1004E00041F0004181607047816841F00401816002
:1004F00070470021016041608160C160016141611C
:100500008161012101777047B0F1A04F02D0124AFA
:10051000904212D141B1114A126842F400024FF0E8
:10052000A043C3F8082316E00C4A126822F4000224
:100530004FF0A043C3F808230DE031B1084A126818
:1005400042F40002064B1A6005E0054A126822F4E4
:100550000002034B1A60704700010050080300506E
:1005600008070050826822F04052826021B1826800
:1005700042F08052826003E0826842F00052826062
:1005800070470000B0F1A04F02D0124A904212D141
:1005900041B1114A126842F480024FF0A043C3F8FF
:1005A000082316E00C4A126822F480024FF0A043A0
:1005B000C3F808230DE031B1084A126842F4800202
:1005C000064B1A6005E0054A126822F48002034BCC
:1005D0001A607047000100500803005008070050DF
:1005E00000BFFEE77047F0B50A4600210023002453
:1005F00000BF3DE0012505FA01F3156805EA030493
:100600009C4234D11579012D02D01579022D16D1D5
:1006100085684F000326BE40B543856055794E007E
:10062000B540866835438560868801258D40AE4398
:100630008680868895798D40ADB22E438680056888
:100640004F000326BE40B543056015794E00B54006
:10065000066835430560C5684F000326BE40B543B4
:10066000C560D5794E00B540C6683543C560491CA4
:100670001029BFD3F0BD00BFFEE700BFFEE7704703
:10068000704700000021010F31B1094AD26A22F4FB
:100690007852074BDA6205E0054AD26A22F4F87212
:1006A000034BDA62024AD26A0243014BDA627047B4
:1006B0000010024029B1064A52690243044B5A61B4
:1006C00004E0034A52698243014B5A6170470000BB
:1006D000001002407047000002201B4908601B48C0
:1006E00040681A49486008464068486008464068C3
:1006F00040F4806048600846406820F47C10486000
:100700000846406840F4601048600846006840F0C1
:100710008070086000BF0D48006800F0007000287D
:10072000F9D00A48406820F00300084948600846AC
:10073000406840F00200486000BF0448406800F094
:100740000C000828F9D17047002002400010024038
:100750007047000010B51B48006840F4700019494C
:1007600008601948006840F0010017490860084611
:100770004068164908401449486008460068144912
:100780000840114908600846006820F4802008608D
:100790000846406820F4FE0048600846C06A20F021
:1007A0000F00C8620846006B0A4908400649086302
:1007B00000208860FFF790FF4FF00060014980390A
:1007C000086010BD88ED00E0001002400CC07FF80A
:1007D000FFFFF6FECCFC00FF00BFFEE790B001215A
:1007E0000807FFF767FF01214804FFF763FF0320B5
:1007F0008DF83C0000208DF83E008DF83F00012070
:100800008DF83D000E900EA94FF09040FFF7EBFEE3
:100810004FF48070FFF736FF01A8FFF76AFE012151
:100820004FF0A040FFF79EFE00205149086004E011
:100830004F480068401C4E4908604D4800684FF61C
:10084000FF718842F4D300204949086004E0484819
:100850000068401C46490860454800684FF6FF7133
:100860008842F4D300214FF0A040FFF730FE4FF054
:10087000A040FFF734FE00BF4FF0A040FFF76EFD31
:100880000028F9D14FF0A040FFF772FD39490880E8
:10089000002009900A900B900C908DF8340009A963
:1008A0004FF0A040FFF728FD4FF4005001900020CA
:1008B00002900390049005900690079002208DF816
:1008C000200001A94FF0A040FFF764FD01214FF087
:1008D000A040FFF757FE01214FF0A040FFF714FEA4
:1008E0000723012211464FF0A040FFF773FD0723B5
:1008F000022210214FF0A040FFF76CFD01214FF0C4
:10090000A040FFF7EEFC00BF01214FF0A040FFF731
:1009100037FD0028F8D04FF0A040FFF7E5FD26E0B6
:1009200000BF04214FF0A040FFF72AFD0028F8D0B7
:100930004FF0A040FFF720FD0F49088000BF0421C1
:100940004FF0A040FFF71CFD0028F8D04FF0A0406A
:10095000FFF712FD094908800748008840F6E44186
:10096000484340F6FF7190FBF1F005490860D7E776
:1009700000000020040000200600002008000020E5
:100980000C0000204FF04070E1EE100A70470000AC
:10099000B00900080000002010000000C401000899
:1009A000C00900081000002060060000E0010008F7
:1009B0000000000000000000000000000000000037
:040000050800018965
:00000001FF
